{
  "abi": [
    {
      "inputs": [
        {
          "internalType": "string",
          "name": "name",
          "type": "string"
        },
        {
          "internalType": "string",
          "name": "symbol",
          "type": "string"
        }
      ],
      "stateMutability": "nonpayable",
      "type": "constructor"
    },
    {
      "anonymous": false,
      "inputs": [
        {
          "indexed": true,
          "internalType": "address",
          "name": "owner",
          "type": "address"
        },
        {
          "indexed": true,
          "internalType": "address",
          "name": "spender",
          "type": "address"
        },
        {
          "indexed": false,
          "internalType": "uint256",
          "name": "amount",
          "type": "uint256"
        }
      ],
      "name": "Approval",
      "type": "event"
    },
    {
      "anonymous": false,
      "inputs": [
        {
          "indexed": true,
          "internalType": "address",
          "name": "from",
          "type": "address"
        },
        {
          "indexed": true,
          "internalType": "address",
          "name": "to",
          "type": "address"
        },
        {
          "indexed": false,
          "internalType": "uint256",
          "name": "amount",
          "type": "uint256"
        }
      ],
      "name": "Transfer",
      "type": "event"
    },
    {
      "inputs": [],
      "name": "DOMAIN_SEPARATOR",
      "outputs": [
        {
          "internalType": "bytes32",
          "name": "",
          "type": "bytes32"
        }
      ],
      "stateMutability": "view",
      "type": "function"
    },
    {
      "inputs": [
        {
          "internalType": "address",
          "name": "",
          "type": "address"
        },
        {
          "internalType": "address",
          "name": "",
          "type": "address"
        }
      ],
      "name": "allowance",
      "outputs": [
        {
          "internalType": "uint256",
          "name": "",
          "type": "uint256"
        }
      ],
      "stateMutability": "view",
      "type": "function"
    },
    {
      "inputs": [
        {
          "internalType": "address",
          "name": "spender",
          "type": "address"
        },
        {
          "internalType": "uint256",
          "name": "amount",
          "type": "uint256"
        }
      ],
      "name": "approve",
      "outputs": [
        {
          "internalType": "bool",
          "name": "",
          "type": "bool"
        }
      ],
      "stateMutability": "nonpayable",
      "type": "function"
    },
    {
      "inputs": [
        {
          "internalType": "address",
          "name": "",
          "type": "address"
        }
      ],
      "name": "balanceOf",
      "outputs": [
        {
          "internalType": "uint256",
          "name": "",
          "type": "uint256"
        }
      ],
      "stateMutability": "view",
      "type": "function"
    },
    {
      "inputs": [
        {
          "internalType": "address",
          "name": "from",
          "type": "address"
        },
        {
          "internalType": "address",
          "name": "callAddress",
          "type": "address"
        },
        {
          "internalType": "bytes",
          "name": "data",
          "type": "bytes"
        }
      ],
      "name": "burn",
      "outputs": [
        {
          "internalType": "bytes",
          "name": "",
          "type": "bytes"
        }
      ],
      "stateMutability": "nonpayable",
      "type": "function"
    },
    {
      "inputs": [],
      "name": "decimals",
      "outputs": [
        {
          "internalType": "uint8",
          "name": "",
          "type": "uint8"
        }
      ],
      "stateMutability": "view",
      "type": "function"
    },
    {
      "inputs": [
        {
          "internalType": "address",
          "name": "to",
          "type": "address"
        },
        {
          "internalType": "uint256",
          "name": "amount",
          "type": "uint256"
        }
      ],
      "name": "mint",
      "outputs": [],
      "stateMutability": "nonpayable",
      "type": "function"
    },
    {
      "inputs": [],
      "name": "name",
      "outputs": [
        {
          "internalType": "string",
          "name": "",
          "type": "string"
        }
      ],
      "stateMutability": "view",
      "type": "function"
    },
    {
      "inputs": [
        {
          "internalType": "address",
          "name": "",
          "type": "address"
        }
      ],
      "name": "nonces",
      "outputs": [
        {
          "internalType": "uint256",
          "name": "",
          "type": "uint256"
        }
      ],
      "stateMutability": "view",
      "type": "function"
    },
    {
      "inputs": [
        {
          "internalType": "address",
          "name": "owner",
          "type": "address"
        },
        {
          "internalType": "address",
          "name": "spender",
          "type": "address"
        },
        {
          "internalType": "uint256",
          "name": "value",
          "type": "uint256"
        },
        {
          "internalType": "uint256",
          "name": "deadline",
          "type": "uint256"
        },
        {
          "internalType": "uint8",
          "name": "v",
          "type": "uint8"
        },
        {
          "internalType": "bytes32",
          "name": "r",
          "type": "bytes32"
        },
        {
          "internalType": "bytes32",
          "name": "s",
          "type": "bytes32"
        }
      ],
      "name": "permit",
      "outputs": [],
      "stateMutability": "nonpayable",
      "type": "function"
    },
    {
      "inputs": [],
      "name": "symbol",
      "outputs": [
        {
          "internalType": "string",
          "name": "",
          "type": "string"
        }
      ],
      "stateMutability": "view",
      "type": "function"
    },
    {
      "inputs": [],
      "name": "totalSupply",
      "outputs": [
        {
          "internalType": "uint256",
          "name": "",
          "type": "uint256"
        }
      ],
      "stateMutability": "view",
      "type": "function"
    },
    {
      "inputs": [
        {
          "internalType": "address",
          "name": "to",
          "type": "address"
        },
        {
          "internalType": "uint256",
          "name": "amount",
          "type": "uint256"
        }
      ],
      "name": "transfer",
      "outputs": [
        {
          "internalType": "bool",
          "name": "",
          "type": "bool"
        }
      ],
      "stateMutability": "nonpayable",
      "type": "function"
    },
    {
      "inputs": [
        {
          "internalType": "address",
          "name": "from",
          "type": "address"
        },
        {
          "internalType": "address",
          "name": "to",
          "type": "address"
        },
        {
          "internalType": "uint256",
          "name": "amount",
          "type": "uint256"
        }
      ],
      "name": "transferFrom",
      "outputs": [
        {
          "internalType": "bool",
          "name": "",
          "type": "bool"
        }
      ],
      "stateMutability": "nonpayable",
      "type": "function"
    }
  ],
  "bytecode": {
    "object": "0x60e06040523480156200001157600080fd5b50604051620011703803806200117083398101604081905262000034916200029a565b8181600882600090805190602001906200005092919062000127565b5081516200006690600190602085019062000127565b5060ff81166080524660a0526200007c6200008b565b60c05250620003e39350505050565b60007f8b73c3c69bb8fe3d512ecc4cf759cc79239f7b179b0ffacaa9a75d522b39400f6000604051620000bf919062000340565b6040805191829003822060208301939093528101919091527fc89efdaa54c0f20c7adf612882df0950f5a951637e0307cdcb4c672f298b8bc660608201524660808201523060a082015260c00160405160208183030381529060405280519060200120905090565b828054620001359062000304565b90600052602060002090601f016020900481019282620001595760008555620001a4565b82601f106200017457805160ff1916838001178555620001a4565b82800160010185558215620001a4579182015b82811115620001a457825182559160200191906001019062000187565b50620001b2929150620001b6565b5090565b5b80821115620001b25760008155600101620001b7565b634e487b7160e01b600052604160045260246000fd5b600082601f830112620001f557600080fd5b81516001600160401b0380821115620002125762000212620001cd565b604051601f8301601f19908116603f011681019082821181831017156200023d576200023d620001cd565b816040528381526020925086838588010111156200025a57600080fd5b600091505b838210156200027e57858201830151818301840152908201906200025f565b83821115620002905760008385830101525b9695505050505050565b60008060408385031215620002ae57600080fd5b82516001600160401b0380821115620002c657600080fd5b620002d486838701620001e3565b93506020850151915080821115620002eb57600080fd5b50620002fa85828601620001e3565b9150509250929050565b600181811c908216806200031957607f821691505b6020821081036200033a57634e487b7160e01b600052602260045260246000fd5b50919050565b600080835481600182811c9150808316806200035d57607f831692505b602080841082036200037d57634e487b7160e01b86526022600452602486fd5b818015620003945760018114620003a657620003d5565b60ff19861689528489019650620003d5565b60008a81526020902060005b86811015620003cd5781548b820152908501908301620003b2565b505084890196505b509498975050505050505050565b60805160a05160c051610d5d6200041360003960006104ee015260006104b9015260006101720152610d5d6000f3fe608060405234801561001057600080fd5b50600436106100ea5760003560e01c806340c10f191161008c57806395d89b411161006657806395d89b4114610203578063a9059cbb1461020b578063d505accf1461021e578063dd62ed3e1461023157600080fd5b806340c10f19146101ae57806370a08231146101c35780637ecebe00146101e357600080fd5b806323b872dd116100c857806323b872dd14610147578063305b95b71461015a578063313ce5671461016d5780633644e515146101a657600080fd5b806306fdde03146100ef578063095ea7b31461010d57806318160ddd14610130575b600080fd5b6100f761025c565b604051610104919061098c565b60405180910390f35b61012061011b3660046109c2565b6102ea565b6040519015158152602001610104565b61013960025481565b604051908152602001610104565b6101206101553660046109ec565b610356565b6100f7610168366004610a3e565b610436565b6101947f000000000000000000000000000000000000000000000000000000000000000081565b60405160ff9091168152602001610104565b6101396104b5565b6101c16101bc3660046109c2565b610510565b005b6101396101d1366004610b10565b60036020526000908152604090205481565b6101396101f1366004610b10565b60056020526000908152604090205481565b6100f761051e565b6101206102193660046109c2565b61052b565b6101c161022c366004610b2b565b610591565b61013961023f366004610b9e565b600460209081526000928352604080842090915290825290205481565b6000805461026990610bd1565b80601f016020809104026020016040519081016040528092919081815260200182805461029590610bd1565b80156102e25780601f106102b7576101008083540402835291602001916102e2565b820191906000526020600020905b8154815290600101906020018083116102c557829003601f168201915b505050505081565b3360008181526004602090815260408083206001600160a01b038716808552925280832085905551919290917f8c5be1e5ebec7d5bd14f71427d1e84f3dd0314c0f7b2291e5b200ac8c7c3b925906103459086815260200190565b60405180910390a350600192915050565b6001600160a01b038316600090815260046020908152604080832033845290915281205460001981146103b25761038d8382610c21565b6001600160a01b03861660009081526004602090815260408083203384529091529020555b6001600160a01b038516600090815260036020526040812080548592906103da908490610c21565b90915550506001600160a01b0380851660008181526003602052604090819020805487019055519091871690600080516020610d08833981519152906104239087815260200190565b60405180910390a3506001949350505050565b606060005a90506000846001600160a01b0316846040516104579190610c38565b6000604051808303816000865af19150503d8060008114610494576040519150601f19603f3d011682016040523d82523d6000602084013e610499565b606091505b509150505a820391506104ac86836107da565b95945050505050565b60007f000000000000000000000000000000000000000000000000000000000000000046146104eb576104e6610844565b905090565b507f000000000000000000000000000000000000000000000000000000000000000090565b61051a82826108de565b5050565b6001805461026990610bd1565b3360009081526003602052604081208054839190839061054c908490610c21565b90915550506001600160a01b03831660008181526003602052604090819020805485019055513390600080516020610d08833981519152906103459086815260200190565b428410156105e65760405162461bcd60e51b815260206004820152601760248201527f5045524d49545f444541444c494e455f4558504952454400000000000000000060448201526064015b60405180910390fd5b600060016105f26104b5565b6001600160a01b038a811660008181526005602090815260409182902080546001810190915582517f6e71edae12b1b97f4d1f60370fef10105fa2faae0126114a169c64845d6126c98184015280840194909452938d166060840152608083018c905260a083019390935260c08083018b90528151808403909101815260e08301909152805192019190912061190160f01b6101008301526101028201929092526101228101919091526101420160408051601f198184030181528282528051602091820120600084529083018083525260ff871690820152606081018590526080810184905260a0016020604051602081039080840390855afa1580156106fe573d6000803e3d6000fd5b5050604051601f1901519150506001600160a01b038116158015906107345750876001600160a01b0316816001600160a01b0316145b6107715760405162461bcd60e51b815260206004820152600e60248201526d24a72b20a624a22fa9a4a3a722a960911b60448201526064016105dd565b6001600160a01b0390811660009081526004602090815260408083208a8516808552908352928190208990555188815291928a16917f8c5be1e5ebec7d5bd14f71427d1e84f3dd0314c0f7b2291e5b200ac8c7c3b925910160405180910390a350505050505050565b6001600160a01b03821660009081526003602052604081208054839290610802908490610c21565b90915550506002805482900390556040518181526000906001600160a01b03841690600080516020610d08833981519152906020015b60405180910390a35050565b60007f8b73c3c69bb8fe3d512ecc4cf759cc79239f7b179b0ffacaa9a75d522b39400f60006040516108769190610c54565b6040805191829003822060208301939093528101919091527fc89efdaa54c0f20c7adf612882df0950f5a951637e0307cdcb4c672f298b8bc660608201524660808201523060a082015260c00160405160208183030381529060405280519060200120905090565b80600260008282546108f09190610cef565b90915550506001600160a01b038216600081815260036020908152604080832080548601905551848152600080516020610d088339815191529101610838565b60005b8381101561094b578181015183820152602001610933565b8381111561095a576000848401525b50505050565b60008151808452610978816020860160208601610930565b601f01601f19169290920160200192915050565b60208152600061099f6020830184610960565b9392505050565b80356001600160a01b03811681146109bd57600080fd5b919050565b600080604083850312156109d557600080fd5b6109de836109a6565b946020939093013593505050565b600080600060608486031215610a0157600080fd5b610a0a846109a6565b9250610a18602085016109a6565b9150604084013590509250925092565b634e487b7160e01b600052604160045260246000fd5b600080600060608486031215610a5357600080fd5b610a5c846109a6565b9250610a6a602085016109a6565b9150604084013567ffffffffffffffff80821115610a8757600080fd5b818601915086601f830112610a9b57600080fd5b813581811115610aad57610aad610a28565b604051601f8201601f19908116603f01168101908382118183101715610ad557610ad5610a28565b81604052828152896020848701011115610aee57600080fd5b8260208601602083013760006020848301015280955050505050509250925092565b600060208284031215610b2257600080fd5b61099f826109a6565b600080600080600080600060e0888a031215610b4657600080fd5b610b4f886109a6565b9650610b5d602089016109a6565b95506040880135945060608801359350608088013560ff81168114610b8157600080fd5b9699959850939692959460a0840135945060c09093013592915050565b60008060408385031215610bb157600080fd5b610bba836109a6565b9150610bc8602084016109a6565b90509250929050565b600181811c90821680610be557607f821691505b602082108103610c0557634e487b7160e01b600052602260045260246000fd5b50919050565b634e487b7160e01b600052601160045260246000fd5b600082821015610c3357610c33610c0b565b500390565b60008251610c4a818460208701610930565b9190910192915050565b600080835481600182811c915080831680610c7057607f831692505b60208084108203610c8f57634e487b7160e01b86526022600452602486fd5b818015610ca35760018114610cb457610ce1565b60ff19861689528489019650610ce1565b60008a81526020902060005b86811015610cd95781548b820152908501908301610cc0565b505084890196505b509498975050505050505050565b60008219821115610d0257610d02610c0b565b50019056feddf252ad1be2c89b69c2b068fc378daa952ba7f163c4a11628f55a4df523b3efa26469706673582212205f040e6de5e8aeb77505cbcd409b33696169d1fc4c14b2eb454a3c2a91f0803964736f6c634300080d0033",
    "linkReferences": {}
  },
  "methodIdentifiers": {
    "DOMAIN_SEPARATOR()": "3644e515",
    "allowance(address,address)": "dd62ed3e",
    "approve(address,uint256)": "095ea7b3",
    "balanceOf(address)": "70a08231",
    "burn(address,address,bytes)": "305b95b7",
    "decimals()": "313ce567",
    "mint(address,uint256)": "40c10f19",
    "name()": "06fdde03",
    "nonces(address)": "7ecebe00",
    "permit(address,address,uint256,uint256,uint8,bytes32,bytes32)": "d505accf",
    "symbol()": "95d89b41",
    "totalSupply()": "18160ddd",
    "transfer(address,uint256)": "a9059cbb",
    "transferFrom(address,address,uint256)": "23b872dd"
  },
  "id": 8
}