{
  "abi": [
    {
      "inputs": [
        {
          "internalType": "string",
          "name": "name",
          "type": "string"
        },
        {
          "internalType": "string",
          "name": "symbol",
          "type": "string"
        }
      ],
      "name": "deploy",
      "outputs": [
        {
          "internalType": "address",
          "name": "",
          "type": "address"
        }
      ],
      "stateMutability": "nonpayable",
      "type": "function"
    }
  ],
  "bytecode": {
    "object": "0x608060405234801561001057600080fd5b5061140b806100206000396000f3fe608060405234801561001057600080fd5b506004361061002b5760003560e01c8063b548848714610030575b600080fd5b61004361003e366004610162565b61005f565b6040516001600160a01b03909116815260200160405180910390f35b60008060008390506020810151915081858560405161007d906100b2565b61008892919061020c565b8190604051809103906000f59050801580156100a8573d6000803e3d6000fd5b5095945050505050565b61119b8061023b83390190565b634e487b7160e01b600052604160045260246000fd5b600082601f8301126100e657600080fd5b813567ffffffffffffffff80821115610101576101016100bf565b604051601f8301601f19908116603f01168101908282118183101715610129576101296100bf565b8160405283815286602085880101111561014257600080fd5b836020870160208301376000602085830101528094505050505092915050565b6000806040838503121561017557600080fd5b823567ffffffffffffffff8082111561018d57600080fd5b610199868387016100d5565b935060208501359150808211156101af57600080fd5b506101bc858286016100d5565b9150509250929050565b6000815180845260005b818110156101ec576020818501810151868301820152016101d0565b506000602082860101526020601f19601f83011685010191505092915050565b60408152600061021f60408301856101c6565b828103602084015261023181856101c6565b9594505050505056fe60e06040523480156200001157600080fd5b506040516200119b3803806200119b8339810160408190526200003491620001db565b818160086000620000468482620002d4565b506001620000558382620002d4565b5060ff81166080524660a0526200006b6200007a565b60c052506200041e9350505050565b60007f8b73c3c69bb8fe3d512ecc4cf759cc79239f7b179b0ffacaa9a75d522b39400f6000604051620000ae9190620003a0565b6040805191829003822060208301939093528101919091527fc89efdaa54c0f20c7adf612882df0950f5a951637e0307cdcb4c672f298b8bc660608201524660808201523060a082015260c00160405160208183030381529060405280519060200120905090565b634e487b7160e01b600052604160045260246000fd5b600082601f8301126200013e57600080fd5b81516001600160401b03808211156200015b576200015b62000116565b604051601f8301601f19908116603f0116810190828211818310171562000186576200018662000116565b81604052838152602092508683858801011115620001a357600080fd5b600091505b83821015620001c75785820183015181830184015290820190620001a8565b600093810190920192909252949350505050565b60008060408385031215620001ef57600080fd5b82516001600160401b03808211156200020757600080fd5b62000215868387016200012c565b935060208501519150808211156200022c57600080fd5b506200023b858286016200012c565b9150509250929050565b600181811c908216806200025a57607f821691505b6020821081036200027b57634e487b7160e01b600052602260045260246000fd5b50919050565b601f821115620002cf57600081815260208120601f850160051c81016020861015620002aa5750805b601f850160051c820191505b81811015620002cb57828155600101620002b6565b5050505b505050565b81516001600160401b03811115620002f057620002f062000116565b620003088162000301845462000245565b8462000281565b602080601f831160018114620003405760008415620003275750858301515b600019600386901b1c1916600185901b178555620002cb565b600085815260208120601f198616915b82811015620003715788860151825594840194600190910190840162000350565b5085821015620003905787850151600019600388901b60f8161c191681555b5050505050600190811b01905550565b6000808354620003b08162000245565b60018281168015620003cb5760018114620003e15762000412565b60ff198416875282151583028701945062000412565b8760005260208060002060005b85811015620004095781548a820152908401908201620003ee565b50505082870194505b50929695505050505050565b60805160a05160c051610d4d6200044e60003960006104ef015260006104ba015260006101720152610d4d6000f3fe608060405234801561001057600080fd5b50600436106100ea5760003560e01c806340c10f191161008c57806395d89b411161006657806395d89b4114610203578063a9059cbb1461020b578063d505accf1461021e578063dd62ed3e1461023157600080fd5b806340c10f19146101ae57806370a08231146101c35780637ecebe00146101e357600080fd5b806323b872dd116100c857806323b872dd14610147578063305b95b71461015a578063313ce5671461016d5780633644e515146101a657600080fd5b806306fdde03146100ef578063095ea7b31461010d57806318160ddd14610130575b600080fd5b6100f761025c565b6040516101049190610981565b60405180910390f35b61012061011b3660046109b7565b6102ea565b6040519015158152602001610104565b61013960025481565b604051908152602001610104565b6101206101553660046109e1565b610357565b6100f7610168366004610a33565b610437565b6101947f000000000000000000000000000000000000000000000000000000000000000081565b60405160ff9091168152602001610104565b6101396104b6565b6101c16101bc3660046109b7565b610511565b005b6101396101d1366004610b05565b60036020526000908152604090205481565b6101396101f1366004610b05565b60056020526000908152604090205481565b6100f761051f565b6101206102193660046109b7565b61052c565b6101c161022c366004610b20565b610592565b61013961023f366004610b93565b600460209081526000928352604080842090915290825290205481565b6000805461026990610bc6565b80601f016020809104026020016040519081016040528092919081815260200182805461029590610bc6565b80156102e25780601f106102b7576101008083540402835291602001916102e2565b820191906000526020600020905b8154815290600101906020018083116102c557829003601f168201915b505050505081565b3360008181526004602090815260408083206001600160a01b038716808552925280832085905551919290917f8c5be1e5ebec7d5bd14f71427d1e84f3dd0314c0f7b2291e5b200ac8c7c3b925906103459086815260200190565b60405180910390a35060015b92915050565b6001600160a01b038316600090815260046020908152604080832033845290915281205460001981146103b35761038e8382610c16565b6001600160a01b03861660009081526004602090815260408083203384529091529020555b6001600160a01b038516600090815260036020526040812080548592906103db908490610c16565b90915550506001600160a01b0380851660008181526003602052604090819020805487019055519091871690600080516020610cf8833981519152906104249087815260200190565b60405180910390a3506001949350505050565b606060005a90506000846001600160a01b0316846040516104589190610c29565b6000604051808303816000865af19150503d8060008114610495576040519150601f19603f3d011682016040523d82523d6000602084013e61049a565b606091505b509150505a820391506104ad86836107db565b95945050505050565b60007f000000000000000000000000000000000000000000000000000000000000000046146104ec576104e7610845565b905090565b507f000000000000000000000000000000000000000000000000000000000000000090565b61051b82826108df565b5050565b6001805461026990610bc6565b3360009081526003602052604081208054839190839061054d908490610c16565b90915550506001600160a01b03831660008181526003602052604090819020805485019055513390600080516020610cf8833981519152906103459086815260200190565b428410156105e75760405162461bcd60e51b815260206004820152601760248201527f5045524d49545f444541444c494e455f4558504952454400000000000000000060448201526064015b60405180910390fd5b600060016105f36104b6565b6001600160a01b038a811660008181526005602090815260409182902080546001810190915582517f6e71edae12b1b97f4d1f60370fef10105fa2faae0126114a169c64845d6126c98184015280840194909452938d166060840152608083018c905260a083019390935260c08083018b90528151808403909101815260e08301909152805192019190912061190160f01b6101008301526101028201929092526101228101919091526101420160408051601f198184030181528282528051602091820120600084529083018083525260ff871690820152606081018590526080810184905260a0016020604051602081039080840390855afa1580156106ff573d6000803e3d6000fd5b5050604051601f1901519150506001600160a01b038116158015906107355750876001600160a01b0316816001600160a01b0316145b6107725760405162461bcd60e51b815260206004820152600e60248201526d24a72b20a624a22fa9a4a3a722a960911b60448201526064016105de565b6001600160a01b0390811660009081526004602090815260408083208a8516808552908352928190208990555188815291928a16917f8c5be1e5ebec7d5bd14f71427d1e84f3dd0314c0f7b2291e5b200ac8c7c3b925910160405180910390a350505050505050565b6001600160a01b03821660009081526003602052604081208054839290610803908490610c16565b90915550506002805482900390556040518181526000906001600160a01b03841690600080516020610cf8833981519152906020015b60405180910390a35050565b60007f8b73c3c69bb8fe3d512ecc4cf759cc79239f7b179b0ffacaa9a75d522b39400f60006040516108779190610c45565b6040805191829003822060208301939093528101919091527fc89efdaa54c0f20c7adf612882df0950f5a951637e0307cdcb4c672f298b8bc660608201524660808201523060a082015260c00160405160208183030381529060405280519060200120905090565b80600260008282546108f19190610ce4565b90915550506001600160a01b038216600081815260036020908152604080832080548601905551848152600080516020610cf88339815191529101610839565b60005b8381101561094c578181015183820152602001610934565b50506000910152565b6000815180845261096d816020860160208601610931565b601f01601f19169290920160200192915050565b6020815260006109946020830184610955565b9392505050565b80356001600160a01b03811681146109b257600080fd5b919050565b600080604083850312156109ca57600080fd5b6109d38361099b565b946020939093013593505050565b6000806000606084860312156109f657600080fd5b6109ff8461099b565b9250610a0d6020850161099b565b9150604084013590509250925092565b634e487b7160e01b600052604160045260246000fd5b600080600060608486031215610a4857600080fd5b610a518461099b565b9250610a5f6020850161099b565b9150604084013567ffffffffffffffff80821115610a7c57600080fd5b818601915086601f830112610a9057600080fd5b813581811115610aa257610aa2610a1d565b604051601f8201601f19908116603f01168101908382118183101715610aca57610aca610a1d565b81604052828152896020848701011115610ae357600080fd5b8260208601602083013760006020848301015280955050505050509250925092565b600060208284031215610b1757600080fd5b6109948261099b565b600080600080600080600060e0888a031215610b3b57600080fd5b610b448861099b565b9650610b526020890161099b565b95506040880135945060608801359350608088013560ff81168114610b7657600080fd5b9699959850939692959460a0840135945060c09093013592915050565b60008060408385031215610ba657600080fd5b610baf8361099b565b9150610bbd6020840161099b565b90509250929050565b600181811c90821680610bda57607f821691505b602082108103610bfa57634e487b7160e01b600052602260045260246000fd5b50919050565b634e487b7160e01b600052601160045260246000fd5b8181038181111561035157610351610c00565b60008251610c3b818460208701610931565b9190910192915050565b600080835481600182811c915080831680610c6157607f831692505b60208084108203610c8057634e487b7160e01b86526022600452602486fd5b818015610c945760018114610ca957610cd6565b60ff1986168952841515850289019650610cd6565b60008a81526020902060005b86811015610cce5781548b820152908501908301610cb5565b505084890196505b509498975050505050505050565b8082018082111561035157610351610c0056feddf252ad1be2c89b69c2b068fc378daa952ba7f163c4a11628f55a4df523b3efa264697066735822122004e56f28925db75d9c48f947ae28779a7bd4b7e1f67ed0fcaa456dc944ff3db764736f6c63430008110033a26469706673582212202b13df613a6407f195e7585a41837cba24e7e8704f71b9263181a6b57c0391cd64736f6c63430008110033",
    "linkReferences": {}
  },
  "methodIdentifiers": {
    "deploy(string,string)": "b5488487"
  },
  "id": 22
}